:100000009BC10000CAC10000C8C10000C6C10000F9
:10001000C4C10000C2C10000C0C10000BEC10000D8
:10002000BCC10000BAC10000B8C10000B6C10000E8
:10003000B4C100000C94D70CB0C10000AEC10000E8
:10004000ACC10000AAC10000A8C10000A6C1000008
:10005000A4C10000A2C10000A0C100000C943B0F8D
:100060009CC100000C9465100C943C1096C10000DB
:1000700094C1000092C1000090C100008EC1000038
:100080008CC100008AC1000088C1000086C1000048
:1000900084C1000082C1000080C100007EC1000058
:1000A0007CC100007AC1000078C1000076C1000068
:1000B00074C1000072C1000070C100006EC1000078
:1000C0006CC100006AC1000068C1000066C1000088
:1000D00064C1000062C1000060C100005EC1000098
:1000E0005CC1000079137C136B136F137313B3138C
:1000F000801384138A138E13921398139C13A013E6
:10010000B313A613AA13AE1300407A10F35A00A03B
:10011000724E18090010A5D4E80000E876481700D0
:1001200000E40B54020000CA9A3B000000E1F50510
:10013000000080969800000040420F000000A0865A
:1001400001000000102700000000E803000000008C
:100150006400000000000A00000000000100000030
:1001600000002C76D888DC674F0823DFC1DFAE594A
:10017000E1B1B796E5E3E453C63AE651997696E8DD
:10018000E6C28426EB898C9B62ED407C6FFCEFBC61
:100190009C9F40F2BAA56FA5F490055A2AF75C938C
:1001A0006B6CF9676DC11BFCE0E40D47FEF520E6C2
:1001B000B500D0ED902E0300943577050080841EA5
:1001C000080000204E0A000000C80C333333330F00
:1001D000986E12831141EF8D2114893BE65516CF9D
:1001E000FEE6DB18D1844B381BF77C1D901DA4BBA9
:1001F000E424203284725E228100C9F124ECA1E55E
:100200003D271112131415160A0B0C0D0E0F0001C9
:100210000203040500000A0B02090C0D0E08070377
:1002200004010000000000000000000000000000C9
:1002300000000000000000000000000000000000BE
:10024000121110000000000000000000000000007B
:100250000000000000000000000000002100240059
:1002600027002A002D0030003300010100000401A6
:1002700007010A01000020002300260029002C00AD
:100280002F003200000100000301060109010000F7
:100290002200250028002B002E003100340002012E
:1002A0000000050108010B01050505050705080803
:1002B0000808020202020A0A0808040404040101F0
:1002C0000101010101010303030303030303040705
:1002D00007070C0C0C0C0C0C0C0C0202020206069C
:1002E0000606060606060B0B0B0B0B0B0B0B01028F
:1002F0001020200808102040102040800201020138
:1003000008040201010204081020408080402010EF
:100310000804020180040201804020100804020148
:1003200008040201010204081020408001020408B0
:10033000102040802817301411241FBECFEFD1E2C7
:10034000DEBFCDBF00E00CBF26E0A8E5B5E001C0F0
:100350001D92A93FB207E1F715E0A0E0B2E0E6EB9D
:10036000FFE300E00BBF02C007900D92A835B10774
:10037000D9F711E0CBE9D1E000E006C021970109EF
:10038000802FFE010E94AD1DCA39D10780E0080709
:10039000A9F70E9433140C94CA1F32CEDB01ED91F1
:1003A000FC91168280E090E00895089581E0089520
:1003B00081E00895EF92FF920F931F93CF93DF9305
:1003C000FC01EC018C01065F1F4F20E030E086EA63
:1003D000E82E8EE0F82E899143E08402C0011124BA
:1003E000B7010E94771D280F391F0C171D0799F7B9
:1003F0008085918560E27EE40E94771D820F931FC5
:10040000DF91CF911F910F91FF90EF900895FF9290
:100410000F931F93CF93DF93EB018A01F22E81ECB0
:1004200092E00E9446118F2D0E94471188E992E0C8
:100430000E94461189E0F81205C0888199810E94C6
:1004400052110AC08DE0F81204C0FE01E00FF11F46
:100450001082CE010E94461185E595E0DF91CF9193
:100460001F910F91FF900C944611FF920F931F93D1
:10047000CF93DF93EC018B01F22EC9DF81EA92E08A
:100480000E9446118F2D0E94471183EC92E00E943A
:1004900046118FE0F8122FC087EC92E00E944611BF
:1004A000F801F08084EE92E00E9446118F2D90E0DA
:1004B0000E94521185E595E00E944611F801808165
:1004C000811106C0E881F9810088F189E02D0BC017
:1004D000813089F483EF92E00E944611E881F9812E
:1004E0000288F389E02DB801CE01DF91CF911F91F1
:1004F0000F91FF901994DF91CF911F910F91FF9071
:100500000895AF92BF92CF92DF92EF92FF920F9336
:100510001F93CF93DF93CDB7DEB760970FB6F894F4
:10052000DEBF0FBECDBF6C017B015A018C010C5F99
:100530001F4FFB018081898381818A8382818B8324
:1005400083818C8384818D8385818E8386818F8353
:1005500087818887E9E0F2E06491F6012289AE01A3
:100560004F5F5F4FC8010E94550DE3E0F2E06491D8
:10057000F6014385C8010E943E0D62E0C8010E9459
:100580007C0DEFE0F2E0E49141E050E001C0440F67
:10059000EA95EAF7482B62E0C8010E943E0DF5019A
:1005A0008081898781818A8782818B8783818C87FB
:1005B00084818D8785818E8786818F878781888BCF
:1005C000F6012289AE01475F5F4F6AE0C8010E94D1
:1005D000550DF6012289AE01475F5F4F60E1C8010A
:1005E0000E94550DF601438561E1C8010E943E0D50
:1005F000F701F080C8010E94230D8F2D8770886A53
:100600000E94250DF60180A10E94250DF60181A111
:100610000E94250DC8010E94210DC8010E94D10D24
:1006200060960FB6F894DEBF0FBECDBFDF91CF91BD
:100630001F910F91FF90EF90DF90CF90BF90AF9000
:1006400008959F92AF92BF92CF92DF92EF92FF9266
:100650000F931F93CF93DF93EC016C0184E6C80ED8
:10066000D11C80E2F60111928A95E9F78E010C5FA8
:100670001F4F67E1C8010E947C0DF82FF1709F2E7B
:1006800080FD76C06FEFC8010E942C0DC8010E944A
:10069000230D80E60E94250D8FEF0E94250DF82E78
:1006A000C8010E94210D80E28F1558F462EEC80146
:1006B0000E942C0D62E070E080E090E00E94F81350
:1006C00001C09F2CFB84E92CF91408F4EF2C8C85D5
:1006D000811102C0FE1801C0F12CC8010E94230D37
:1006E00081E60E94250D5601EE2041F08FEF0E9419
:1006F000250DF50181935F01EA94F6CFFF2029F0E3
:100700008FEF0E94250DFA94F9CFC8010E94210DA8
:1007100040E767E0C8010E943E0D7E01F8EAEF0E57
:10072000F11CF7018081882329F0C8010E94A50DE2
:10073000F7011082FBE0F91508F5FE01E759FF4FBC
:1007400080818735A9F4F601A284B384C60132DE24
:10075000A816B90669F4A114B10451F08AA19BA1AD
:10076000A816B90629F0BBA2AAA2C114D10471F43B
:10077000FE01E855FF4F8081811121C0C8010E9410
:10078000D10DC855DF4F81E0888319C0F6018781FC
:10079000882319F09E8D8913EBCFE881F9810484B9
:1007A000F585E02DB601CE011995F7018081811103
:1007B00006C0C8010E94D10D81E0F7018083DF915E
:1007C000CF911F910F91FF90EF90DF90CF90BF904E
:1007D000AF909F9008950C944D1E0F931F93CF934D
:1007E000DF93EC0184E492E0998388838AA19BA142
:1007F000892BC9F0FE01E856FF4F808191810E944C
:100800004D1EFE01E656FF4F118210828E010056EA
:100810001F4FF80180819181009729F00E944D1EA1
:10082000F80111821082CE0182579F4FDF91CF9144
:100830001F910F910C940E0ECF93DF93EC01CDDF3F
:10084000CE01DF91CF910C944D1ECF93DF93EC013D
:1008500061E088810E944A1360E08A81DF91CF9134
:100860000C944A13CF93DF93EC0160E088810E94DF
:100870004A1361E08A81DF91CF910C944A13EF9281
:10088000FF920F931F93CF93DF9300D01F92CDB7AA
:10089000DEB7DC0192962D913C919397232B09F4BE
:1008A0005AC0FC01EE55FF4F008111812281338136
:1008B000AFB7F894409158055091590560915A0589
:1008C00070915B05AFBF4083518362837383401B8C
:1008D000510B620B730B34967F0141155105F1E00A
:1008E0006F07710530F02FEF3FEFD7012D933C9349
:1008F00003C0F701518340838C01DC0112962D91D6
:100900003C911397F70180819181820F931F139679
:100910009C938E931297883E934048F08DE093E02D
:100920000E944611D80113961C921E921297D8016C
:10093000ED91FC910684F785E02DD7018D919C9176
:10094000A0E0B0E089839A83AB83BC83BE016F5F74
:100950007F4FC80119950F900F900F900F90DF9166
:10096000CF911F910F91FF90EF900895CF93DF9358
:10097000EC018C819D81009711F00E944D1E8881B1
:1009800099810E94B51D9C019D838C8381E0232B5E
:1009900009F480E0DF91CF9108958F929F92AF92FA
:1009A000BF92CF92DF92EF92FF920F931F93CF935C
:1009B000DF93EC018B01E881F9810084F185E02D62
:1009C0001995D80114968C911497813071F44D913A
:1009D0005C911197B801645F7F4FE881F9810284CF
:1009E000F385E02D12962C9168C0823019F5F8013C
:1009F0002685378584859585C656DF4F19821882EE
:100A000001969B838A838130924008F0B9C1C90165
:100A100099279D838C83CE010296A8DF882309F451
:100A2000AFC1EE81FF818A819B81E80FF91F319769
:100A30001082A6C1833041F5D801ED90FC906E0183
:100A4000BAE9CB0ED11CF60180819181AC014E0D2B
:100A50005F1DC456DF4F288139812417350708F4FC
:100A60008FC12C813D81B801645F7F4FA701820F48
:100A7000931F0E94BA1FD6018D919C911197E80E89
:100A8000F91EED92FC927CC1843029F5FE01E656F8
:100A9000FF4F42815381CA0101972081318128177C
:100AA000390709F06DC1369660817181E881F9815D
:100AB0000284F385E02D20910000CE01DF91CF91DB
:100AC0001F910F91FF90EF90DF90CF90BF90AF906C
:100AD0009F908F901994863009F0BEC07E01B4E8D3
:100AE000EB0EF11CF70180819181892BE9F53C9691
:100AF00080819181A281B381892B8A2B8B2BA1F1DB
:100B0000349680819181DC012D913C91F7013183F4
:100B10002083009729F18E0102571F4FD8011896A4
:100B20002D913C9119978217930721F419961C92E5
:100B30001E921897FC0122813381D80117963C93AD
:100B40002E9316970E944D1EF80182819381A481F5
:100B5000B5810197A109B10982839383A483B583E9
:100B600061E0CE010E947F11FE01EA57FF4F8080B5
:100B700091808114910409F403C1D7018D919C9156
:100B8000892B09F4FDC05E01B8E8AB0EB11CF5017C
:100B900080819181892B89F0329620813181DE011B
:100BA000AA55BF4F8D919C91820F931F9183808393
:100BB0008536910510F060E0D4C06E01F8EACF0EE2
:100BC000D11CD6018C918E010C5F1F4F882321F020
:100BD000C801BBD7F6011082D4018C91FB849CE044
:100BE000E92EE80EFE1408F4EF2C8C85811102C06A
:100BF000FE1801C0F12CC80126D780EA26D7EE20C6
:100C000031F0F40181914F0120D7EA94F8CFFF2011
:100C100021F080E01AD7FA94FACFC80112D761E028
:100C2000C801EED66FEFC80117D78073D9F360E023
:100C3000C801E6D640E767E0C80120D784FF7FC03F
:100C4000C8011AD7D6018C91811183C0C801A9D7D8
:100C500081E0D6018C937DC089E293E00E94461129
:100C6000F801C48186E493E00E9446118C2F90E045
:100C70000E94521185E593E00E944611D801129618
:100C8000CD91DC91139788E593E00E944611CE0147
:100C90000E944D1185E593E00E944611F801C08144
:100CA000D18184E693E00E944611CE010E944D114D
:100CB00085E593E00E944611D8011596CC9180E716
:100CC00093E00E9446118C2F0E94471185E593E026
:100CD0000E944611F801C68188E793E00E94461100
:100CE0008C2F0E94471185E593E00E944611D801A0
:100CF0001796CC918BE893E00E9446118C2F0E94AE
:100D0000471180EA93E00E944611F801C285D3851D
:100D100082EA93E00E944611CE010E944D1185E5C2
:100D200095E0DF91CF911F910F91FF90EF90DF90B1
:100D3000CF90BF90AF909F908F900C944611D601AA
:100D40008C9181110DC0C8012CD781E0F601808300
:100D500007C0F5018081918101969183808310C045
:100D600061E0CE01DF91CF911F910F91FF90EF9045
:100D7000DF90CF90BF90AF909F908F900C947F1199
:100D8000DF91CF911F910F91FF90EF90DF90CF9067
:100D9000BF90AF909F908F900895CF93DF93EC0119
:100DA00009DB9B878A87DF91CF9108950F931F936B
:100DB000CF93DF938B010E942711EC0182E08C839B
:100DC000D801ED91FC9183E0868384E090E09983E3
:100DD00088838EE090E09B838A83DE011C9684E00A
:100DE00001900D928A95E1F7CE01D7DFCE01DF9118
:100DF000CF911F910F910895EF92FF920F931F9340
:100E0000CF93DF93FB01442309F448C0A281B3814F
:100E100014962C911497233041F4408551852D91DF
:100E20003C91240F351F318720877F010190F0818D
:100E3000E02D40815181D70118962D913C91199751
:100E40008A01021B130B0E942711EC01D701ED91BF
:100E5000FC910115110521F484E086838C831AC06E
:100E600083E086838C8322813381A80105311105BB
:100E700010F044E150E064817581F701808591852F
:100E8000680F791F598348833B832A83CE010C96D0
:100E90000E94BA1FCE0181DFCE0102C080E090E047
:100EA000DF91CF911F910F91FF90EF9008950F93D5
:100EB0001F93CF93DF938B010E942711EC0181E0F8
:100EC0008C83D801ED91FC911682648175818081BB
:100ED0009181A281B38188839983AA83BB83408156
:100EE0005181CE010C960E94BA1FCE0156DFCE0171
:100EF000DF91CF911F910F9108950895FC01918D7D
:100F0000228D892F90E0805C9F4F821B91098F7307
:100F10009927089580E090E0892B19F036D7811148
:100F200025C080E090E0892B41F080E090E0892BA3
:100F300021F00E94000081111CC080E090E0892B0C
:100F400041F080E090E0892B21F00E9400008111A7
:100F500013C080E090E0892BA1F080E090E0892B25
:100F600081F00E94000081110AC008950E940000D3
:100F7000D8CF0E940000E1CF0E940000EACF0C947D
:100F8000000008950F931F93DC015C960D911D9155
:100F90002D913C915F97400F511F621F731F41328B
:100FA00051056105710538F4FC01448F558F668F3A
:100FB000778F80E00EC0DC015C961D921D921D9221
:100FC0001C925F97ED91FC910680F781E02D1995B9
:100FD00081E01F910F910895CF93DF93EC01CB0136
:100FE000BA010E944B1D7E8F6D8F60E08DA90E941B
:100FF0004A1360E08FA90E944A1360E089AD0E9405
:101000004A1360E08BADDF91CF910C944A130C949E
:101010004D1EFF920F931F93CF93DF938C01EB0133
:10102000F9808EEA93E00E9446118F2D90E00E9495
:10103000521185E595E00E94461120E030E040E243
:1010400051E46A817B818C819D810E94CA1B9B0136
:10105000AC016981C80181559F4FDF91CF911F91EC
:101060000F91FF900C94F511CF93DF93EC01CB011E
:10107000BA01298D3A8D4B8D5C8D0E94E31C20E0D6
:1010800030E04AE754E40E94CA1B0E944B1D7E8F49
:101090006D8FCE01C596E6DBCE01C996DF91CF916B
:1010A000E1CBCF93DF93EC01CB01BA012D893E89CF
:1010B0004F89588D0E94E31C20E030E04AE754E459
:1010C0000E94CA1B0E944B1D7E8F6D8FCE01C5965C
:1010D000BCDBCE01C996DF91CF91C4CBCF92DF921A
:1010E000EF92FF92CF93DF93EC016A017B0189ECD1
:1010F00093E00E9446112D893E894F89588DC70182
:10110000B6010E94E31C20E030E04AE754E40E946C
:10111000CA1B0E944B1D7E8F6D8FCE01C596A2DB30
:10112000CE01C996DF91CF91FF90EF90DF90CF90E5
:101130008CCBCF93DF93EC01CB01BA01298D3A8D93
:101140004B8D5C8D0E94E31C20E030E04AE754E4C4
:101150000E94CA1B0E944B1D7E8F6D8FCE01C596CB
:1011600074DBCE01C996DF91CF916FCB2F923F9266
:101170004F925F926F927F928F929F92AF92BF92A7
:10118000CF92DF92EF92FF920F931F93CF93DF9353
:1011900000D000D0CDB7DEB78C01DC0112968D9166
:1011A0009C91139715969C938E9314971A8219828B
:1011B000E12C53E0F52E6BE0C62ED12C78EE872E75
:1011C00073E0972EA12CB12C0E94D3132B013C016C
:1011D00023EE37E3F801378B268B0488F589E02D61
:1011E0009081D8011E968C911E97892B80835096F2
:1011F000ED91FC91519790811E968C911E97809550
:1012000089238083C6010197F1F75096ED91FC91F7
:10121000519790811E968C911E97892B808383E233
:1012200090E00197F1F75096ED91FC9151979081E4
:101230001E968C911E978095892380835496ED91FC
:10124000FC91559790811E968C911E9780958923CD
:1012500080835296ED91FC91539790811F968C91CB
:10126000892309F0C1C00E94D313F8012689378968
:1012700040E050E02855394E4F4F5F4FDC01CB0125
:10128000820F931FA41FB51F808F918FA28FB38FE2
:10129000D8015296ED91FC91539790811F968C91B5
:1012A000892369F40E94D313F801208D318D428D7A
:1012B000538D261737074807590750F795C00E94E6
:1012C000D313D80156962D913C915797DC01CB0151
:1012D000820F931FA11DB11DF801808F918FA28FE6
:1012E000B38FD8015296ED91FC91539790811F9640
:1012F0008C91892369F00E94D313F801208D318DE0
:10130000428D538D261737074807590750F76CC091
:101310000E94D313D80156962D913C915797A9015D
:101320004550510958962D913C915997FA01E21B6D
:10133000F30B6E0F7F1F6115710509F455C0E110A5
:1013400002C080E01FC08E2D282F30E0F9013197B8
:10135000EE0FFF1F41E050E04C0F5D1FE40FF51F43
:10136000408151814617570768F4220F331FE1E08F
:10137000F0E0EC0FFD1FE20FF31F5183408381501B
:1013800019F7DFCFFE013196E80FF11DE80FF11DCF
:1013900071836083E394EF1448F50E94D313DC015A
:1013A000CB0184199509A609B70988349147A1058D
:1013B000B10508F009CF0E94D313B8E44B0EB1E792
:1013C0005B1E611C711CA3019201261B370B480B8D
:1013D000590BCA01B901A50194010E948B1DCA01D4
:1013E000B9010E94F813F0CEFA94D5CF8F2D8E7FDD
:1013F000FE01E80FF11D818192810FB6F894DEBFE6
:101400000FBECDBF69E370E00E94771D61157105C5
:1014100041F48AEF90E0D80113969C938E93129733
:1014200005C0D80113967C936E93129726960FB63B
:10143000F894DEBF0FBECDBFDF91CF911F910F910A
:10144000FF90EF90DF90CF90BF90AF909F908F90E4
:101450007F906F905F904F903F902F9008952F92C4
:101460003F924F925F926F927F928F929F92AF9234
:10147000BF92CF92DF92EF92FF920F931F93CF9381
:10148000DF93CDB7DEB7CF54D1090FB6F894DEBFE6
:101490000FBECDBFFC01EF50FF4F2081213009F47A
:1014A0004AC22C0181E0808380E590E00E94B51D56
:1014B0009BAF8AAF88E691E00E94B51D21968FAF61
:1014C000219722969FAF229712012FEA220E311CFC
:1014D00020E030E048EC53E464E0C10186D763E5E6
:1014E00070E080E090E00E94F81320E030E44CE1EE
:1014F00056E460E0C10179D764ED73E0AE014F5F5F
:101500005F4F6A01CA01A4D5B601C201A8D7C601BE
:101510000E94DF1221960FAD219722961FAD2297D0
:101520008AAD9BAD9FAF8EAF612C712C812C912C1D
:101530005401D201A355BF4F2A96BFAFAEAF2A9731
:10154000FC01E05BFF4F6096FFAFEEAF6097FC2CB5
:10155000ED2CC20194D92A96AEADBFAD2A978D91DC
:101560009C91DC01ED91FC910680F781E02D1995AD
:101570002A96AEADBFAD2A97ED91FC91C280D38083
:10158000F801C192D192FDAFECAFF2E36F16710496
:1015900039F460E777E180E090E00E94F8133CC105
:1015A0002BE06216710408F437C132E3631671044C
:1015B00008F036C0AEADBFADCD92DC92B301CE0126
:1015C00088960E94F512B601CE0182960E94F5120D
:1015D00061EE73E08F2D9E2D3BD5BE016E5D7F4F7A
:1015E0008F2D9E2DF1D767EE73E0CED4BE01685DDE
:1015F0007F4FEAD7BC01CE018E9611D5BE01625D48
:101600007F4FC2012CD7CE018E96D9D78F2D9E2D1C
:10161000D6D7CE018296D3D7CE018896D0D7FCC03C
:10162000B2E36B16710409F4F7C0EDE36E167104B2
:1016300008F4E8C098012055310924963FAF2EAF39
:101640002497CAACDBAC10E0D6016D917D916D01A1
:1016500080E090E00E94691B28966CAF7DAF8EAF52
:101660009FAF28972496EEADFFAD249761917191BD
:101670002496FFAFEEAF249780E090E00E94691BB4
:101680009B01AC0128966CAD7DAD8EAD9FAD2897CA
:101690000E947E1C9B01AC015F772E962CAF3DAF64
:1016A0004EAF5FAF2E972BE734E14EEA5EE328960C
:1016B0006CAD7DAD8EAD9FAD28970E94CA1B9B017E
:1016C000AC012E966CAD7DAD8EAD9FAD2E970E9478
:1016D000651B87FD1F5F60964EAD5FAD60974C1533
:1016E0005D0509F0B1CF67E1CE018E96A8D7612FD5
:1016F000CE018896A4D7ECADFDAD349760817181A1
:10170000CE01829672D76CEE73E08F2D9E2DA0D401
:10171000BE016E5D7F4F8F2D9E2D56D76FEE73E00D
:1017200033D4BE01685D7F4F4FD764EF73E02CD494
:10173000BE01625D7F4F48D7BC01CE01C4966FD415
:10174000BE016C5C7F4FC2018AD6CE01C49637D7EA
:101750008F2D9E2D34D7CE01829631D7CE0188961B
:101760002ED7CE018E962BD7173108F44BC08AADF9
:101770009BAD0E944D1E21968FAD219722969FAD65
:1017800022970E944D1EA501940160E070E084EB59
:1017900093E40E94E31C4B015C011BA21AA21DA250
:1017A0001CA21FA21EA20F2D1E2D22E044E00E94AB
:1017B000CF18BC01CE0182961DD469EF73E08F2D46
:1017C0009E2D46D4BE016E5D7F4F8F2D9E2DFCD683
:1017D000BC01CE01889623D4BE01685D7F4FC20153
:1017E0003ED6CE018896EBD68F2D9E2DE8D6CE0123
:1017F0008296E5D620E030E44CE156E461E0C10198
:10180000F4D587C029E33EE843EE5CE3C501B401AB
:101810000E947F1C4B015C0164EF71E080E090E06E
:10182000E7D720E030E04AE755E463E0C101DDD5C9
:101830006AE070E080E090E0DBD76AE070E080E092
:1018400090E0D6D76AE070E080E090E0D1D720E069
:1018500030E44CE156E460E0C101C7D55FEF651AA2
:10186000750A20E030E040EC50E4C501B4010E946C
:10187000651B87FF0DC02EAD3FAD2E5F3F4F3FAFC5
:101880002EAF0CAD1DAD34EB6316710409F061CEC3
:101890008AAD9BAD0E944D1E21968FAD2197229659
:1018A0009FAD22970E944D1E1BA21AA21DA21CA230
:1018B0001FA21EA28E010F5F1F4F22E044E060E0D6
:1018C00070E081E693E40E94CF18BC01CE018296BD
:1018D00091D363E074E0C801BBD3BE016E5D7F4F5E
:1018E000C80172D6BC01CE01889699D3BE01685D4D
:1018F0007F4FC201B4D5CE01889661D6C8015FD6AC
:10190000CE0182965CD6812C912C81E6A82E83E4B0
:10191000B82EF201EC53FF4F80829182A282B382F3
:1019200020E030E044EB53E464E0C1015ED5F20115
:10193000EF50FF4F1082C15BDF4F0FB6F894DEBF50
:101940000FBECDBFDF91CF911F910F91FF90EF9010
:10195000DF90CF90BF90AF909F908F907F906F90CF
:101960005F904F903F902F900895FC01848DDF0190
:10197000A80FB11DA35ABF4F2C91848D90E0019602
:101980008F739927848FA689B7892C93A089B189F1
:101990008C91837080648C93938D848D981306C092
:1019A0000288F389E02D80818F7D808308951F92C6
:1019B0000F920FB60F9211240BB60F922F933F93F5
:1019C0004F935F936F937F938F939F93AF93BF9347
:1019D000EF93FF93E0E0F0E01995FF91EF91BF9155
:1019E000AF919F918F917F916F915F914F913F91B7
:1019F0002F910F900BBE0F900FBE0F901F90189558
:101A0000FC0120813181828193812817390711F0EF
:101A1000822F40C60895CF93DF93EC018CB58F7D64
:101A20008CBD8CB5837F8CBD8CB58C7F8CBD8DB50A
:101A300081608DBD8A812ED68C899D89DF91CF9161
:101A4000A7C661E0E8CF60E0E6CF8EBD00000DB430
:101A500007FEFDCF8EB508951F93CF93DF93EC0162
:101A6000162FF1DF812FF1DF182FCE01EADF812F52
:101A7000DF91CF911F91089561EEEECF0F931F93E9
:101A8000CF93DF938C01C62FD42FDDDF8C2F8F7186
:101A90008062DBDFC82F8D2FD8DFC801D2DF8C2F0B
:101AA000DF91CF911F910F910895CF92DF92EF9226
:101AB000FF920F931F93CF93DF937C01162F6A0140
:101AC000C22FC1DF812F8F718062BFDFD82F8601C7
:101AD000CC2331F0F80181918F01B7DFC150F8CFED
:101AE000C701AFDF8D2FDF91CF911F910F91FF9035
:101AF000EF90DF90CF9008951F93CF93DF93EC0189
:101B0000162FA1DF812F8F71A0DF8FEF9EDF182F9F
:101B1000CE0197DF812FDF91CF911F910895CF9351
:101B2000DF93EC0160E0E8DF81FD0CC0482F4260EC
:101B300060E0CE01A3DF65E070E080E090E0DF913F
:101B4000CF9156C6DF91CF910895CF93DF93EC01EB
:101B500060E056DF888999891BD66DE1CE01CCDF24
:101B600081FF05C08889998913D6CE0185DF60E0A1
:101B7000CE01C2DF482F4E7F60E0CE017FDF62E002
:101B8000CE01BADFEEE0F2E0E49141E050E001C0C6
:101B9000440FEA95EAF7482B62E0CE01DF91CF913E
:101BA0006DCFCF93DF93EC01BADF60E0CE01A4DF0D
:101BB000482F416060E0CE0161DF40E767E0CE0181
:101BC0005DDF61E0CE011CDF8985882341F02E8531
:101BD000AE01475F5F4F6AE0CE0167DF12C062E08F
:101BE000CE018ADFEEE0F2E0E49121E030E001C0D6
:101BF000220FEA95EAF72095422F482362E0CE01B2
:101C00003DDF6DE1CE0178DF81FF04C0CE01DF91C1
:101C1000CF9132CFDF91CF9108950895CF93DF9385
:101C20002CE332E0FC013183208386819781009789
:101C300041F0FC01D281C3810E944D1E8D2F9C2F4B
:101C4000F6CFDF91CF910895CF93DF93EC01E6DFDC
:101C5000CE01DF91CF910C944D1E2CE632E0FC01B9
:101C6000318320830C94ED03CF93DF93EC01F5DFF8
:101C7000CE01DF91CF910C944D1ECF92DF92EF9267
:101C8000FF920F931F93CF93DF936C017A018B0127
:101C9000C0E0D0E0CE15DF0581F0D8016D918D0157
:101CA000D601ED91FC910190F081E02DC6011995CE
:101CB000892B11F02196EECF7E01C701DF91CF91E4
:101CC0001F910F91FF90EF90DF90CF9008950895AE
:101CD00080E090E00895FC01538D448D252F30E085
:101CE000842F90E0821B930B541710F0CF96089529
:101CF00001970895FC01918D828D981761F0828D76
:101D0000DF01A80FB11D5D968C91928D9F5F9F732F
:101D1000928F90E008958FEF9FEF0895FC01918DD1
:101D2000828D981731F0828DE80FF11D858D90E03E
:101D300008958FEF9FEF08950E94B61F0F931F9392
:101D4000CF93DF93EC0188819981009729F02A8154
:101D50003B812617370788F48B016F5F7F4F0E9406
:101D6000D61E009761F0998388831B830A832C8198
:101D70003D81232B11F4FC01108281E001C080E041
:101D8000DF91CF911F910F91089586E695E0B6D827
:101D900021E0892B09F420E0822F0895EF92FF9231
:101DA0000F931F93CF93DF93EC0181E0888F9B8D7E
:101DB0008C8D981305C0E889F989808185FD25C03F
:101DC000F62E0B8D10E00F5F1F4F0F731127E02EC3
:101DD0008C8DE8120BC00FB607FCFACFE889F989A1
:101DE000808185FFF5CFCE01C0DDF2CF8B8DFE0166
:101DF000E80FF11DE35AFF4FF0829FB7F8940B8F65
:101E0000EA89FB89808180620AC09FB7F894EE89D5
:101E1000FF896083E889F989808183708064808389
:101E20009FBF81E090E0DF91CF911F910F91FF90D4
:101E3000EF900895CF93DF93EC01888D8823C1F054
:101E4000EA89FB89808185FD05C0A889B9898C91C3
:101E500086FD0EC00FB607FCF5CF808185FFF2CF5F
:101E6000A889B9898C9185FFEDCFCE017EDDE8CFC1
:101E7000DF91CF9108951F920F920FB60F92112408
:101E80002F933F938F939F93AF93BF938091580568
:101E900090915905A0915A05B0915B05309161056B
:101EA00023E0230F2D3720F40196A11DB11D05C09D
:101EB00026E8230F0296A11DB11D20936105809392
:101EC000580590935905A0935A05B0935B058091EE
:101ED000620590916305A0916405B0916505019636
:101EE000A11DB11D8093620590936305A0936405C5
:101EF000B0936505BF91AF919F918F913F912F91C5
:101F00000F900FBE0F901F901895EF92FF920F93B6
:101F10001F93CF93DF936115710511F480E01BC00F
:101F200041155105B9F07B01EC018C819D818A013D
:101F3000080F191FB801CE0101DF882379F328812A
:101F400039818C819D81B701820F931F0E94C31F2D
:101F50001D830C8381E0DF91CF911F910F91FF9042
:101F6000EF900895CF93DF93EC01888199810097DA
:101F700011F00E944D1E198218821D821C821B8244
:101F80001A82DF91CF910895CF93DF93EC01611511
:101F9000710559F0FB0101900020E9F73197AF017D
:101FA000461B570BB2DF811102C0CE01DBDFCE0131
:101FB000DF91CF910895EF92FF920F931F93CF93EC
:101FC000DF93EC017B018A01BA01B8DE811103C005
:101FD000CE01C8DF07C01D830C83B70188819981BA
:101FE0000E94C31FCE01DF91CF911F910F91FF90EF
:101FF000EF900895CF93DF93EC016115710551F0D7
:10200000FB0101900020E9F73197AF01461B570B08
:10201000D2DF01C0A7DFCE01DF91CF910895FB0190
:10202000DC0111961C921E9213961C921E9212971E
:1020300015961C921E9214978617970741F060819F
:1020400071816115710519F044815581B4CF0895EE
:10205000FC01118210821382128215821482611592
:10206000710549F0FB0101900020E9F73197AF01BC
:10207000461B570BA0CF08951F920F920FB60F92D9
:1020800011240BB60F922F933F934F935F936F934F
:102090007F938F939F93AF93BF93EF93FF9386E6C6
:1020A00095E063DCFF91EF91BF91AF919F918F918C
:1020B0007F916F915F914F913F912F910F900BBE48
:1020C0000F900FBE0F901F9018951F920F920FB692
:1020D0000F9211240BB60F922F938F939F93EF9330
:1020E000FF93E0917605F09177058081E0917C0582
:1020F000F0917D0582FD12C0908180917F058F5FF8
:102100008F7320918005821751F0E0917F05F0E0F8
:10211000EA59FA4F958F80937F0501C08081FF9126
:10212000EF919F918F912F910F900BBE0F900FBE4B
:102130000F901F901895009761F0FC01019000200E
:10214000E9F73197AF01481B590BBC0186E695E0D2
:1021500094CD80E090E008958F929F92AF92BF92CD
:102160000F931F93CF93DF93CDB7DEB7A1970FB631
:10217000F894DEBF0FBECDBF19A2423008F44AE08A
:102180008E010F5D1F4F842E912CA12CB12CA50127
:1021900094010E948B1DE62FB901CA01015011095B
:1021A000EA3014F4E05D01C0E95CD801EC93232B24
:1021B000242B252B61F7C801BEDFA1960FB6F8943A
:1021C000DEBF0FBECDBFDF91CF911F910F91BF90AA
:1021D000AF909F908F9008950F931F93CF93DF93AD
:1021E000EC01CC57DF4F088119810115110501F170
:1021F000FC01E755FF4FD8012D913C91119784EFD9
:102200009FEF821B930B20813181820F931F91835B
:10221000808314968D919C911597009729F00E94C8
:102220004D1EF80115821482888199810E944D1EED
:1022300019821882198618861B821A821D821C82B6
:102240001F821E82DF91CF911F910F910895FC0193
:10225000B49620E2DF011D922A95E9F7B096DC01E1
:102260005F962C915F9727835E962C915E972683CD
:10227000118210821382128227E52583AE55BF4F4B
:102280008D919C9191878087CF01089554CF682FBD
:1022900070E080E090E04AE05FCFBC0180E090E039
:1022A0004AE05ACFCF92DF92EF92FF92CF93DF9323
:1022B0006C01990FEE08FF08F7FE17C06DE286E685
:1022C00095E06CDDEC0166277727CB016C197D0961
:1022D0008E099F094AE040DF8C0F9D1FDF91CF914F
:1022E000FF90EF90DF90CF9008954AE0C701B601CC
:1022F000DF91CF91FF90EF90DF90CF902DCFFF92A5
:102300000F931F93CF93DF93EC01F62EFC01E85758
:10231000FF4F11821082329611821082BC016C57DD
:102320007F4FDB01ED91FC918681811104C0CE01CC
:1023300053DF80E035C0FE01E856FF4F0190F08189
:10234000E02DB4E08B9FE00DF11D1124228133813B
:102350000190F081E02DC9019595879520FF0AC075
:10236000DE01A80FB91F2D913C91E20FF31F0190E0
:10237000F081E02D4F2D8C0F9D1F19958E010A576E
:102380001F4FF80191838083892B89F2F11002C0DD
:10239000CE0122DFD8018D919C910E94CD0681E073
:1023A000DF91CF911F910F91FF90089590E0FC0174
:1023B000E251FD4F2491FC01E855FD4F84918823A3
:1023C00099F090E0880F991FFC01E65AFD4FA59106
:1023D000B491FC01E257FD4F859194918FB7F89429
:1023E000EC91E22BEC938FBF0895CF92DF92EF92A6
:1023F000FF921F93CF93DF93EC01162F69017A01AF
:102400008BEC94E043DF1C8A1DAF18A21F8E1E8E3A
:102410001D8EFE0184E0189FE00DF11D1124228124
:1024200033810190F081E02DC9019595879520FFBA
:102430000AC0DE01A80FB91F2D913C91E20FF31FD6
:102440000190F081E02DB701A6018C0F9D1FDF9157
:10245000CF911F91FF90EF90DF90CF901994CF9282
:10246000DF92EF92FF920F931F93CF93DF937C0144
:10247000DB0114960D911C911597CD90DC9088E0AE
:1024800090E00E94B51DEC0188E0FE0111928A9552
:10249000E9F71D821C82198308838DE090E09B83FD
:1024A0008A830115110519F485EE94E014C00531F5
:1024B0001105A8F00130F2E01F0778F086E195E001
:1024C000E5DEC801EADE8EE495E0E0DE80E092E041
:1024D000E9DE84E595E0DADE68C082E001C081E0F3
:1024E0008E83F701E755FF4F808191810C96080F8D
:1024F000191FD701A555BF4F8D919C91C297801789
:10250000910708F452C011830083CE010E94B604E3
:1025100048815981B6018C819D810E94BA1F870133
:1025200002571F4FD80116968D919C911797892BB2
:1025300069F484E090E00E94B51DF80197838683DA
:10254000DC0113961C921E92129713C084E090E057
:102550000E94B51DD8011896ED91FC9119979383AF
:102560008283DC0113961C921E92129782819381C2
:10257000F80191878087D8011896ED91FC91199701
:10258000D183C08312968D919D910D90BC91A02D09
:102590000196A11DB11DF80182839383A483B583A5
:1025A000C7010E943F0481E001C080E0DF91CF912C
:1025B0001F910F91FF90EF90DF90CF900895FC0155
:1025C000808191810C944D1ECF93DF93EC01FB0130
:1025D000448155816081718198DC811102C0CE01F6
:1025E000C1DCCE01DF91CF9108950F931F93CF935C
:1025F000DF93CDB7DEB761970FB6F894DEBF0FBE9D
:10260000CDBF8C01CB01F80111821082138212829E
:10261000158214824AE0BE016F5F7F4FDFD5BE0195
:102620006F5F7F4FC801E6DC61960FB6F894DEBF9E
:102630000FBECDBFDF91CF911F910F9108950F93E2
:102640001F93CF93DF93CDB7DEB729970FB6F894DA
:10265000DEBF0FBECDBF8C01862FF8011182108224
:1026600013821282158214824AE0BE016F5F7F4F8F
:1026700090E0B4D5BE016F5F7F4FC801BBDC2996E7
:102680000FB6F894DEBF0FBECDBFDF91CF911F9183
:102690000F910895362F90E0FC01EC5EFD4F4491C0
:1026A000FC01E251FD4F2491FC01E855FD4F94914E
:1026B000992309F46CC0442309F455C050E0FA0191
:1026C0003197E231F10508F04EC08827EE58FF4FF0
:1026D0008F4F0C94AD1D809180008F7707C0809143
:1026E00080008F7D03C080918000877F8093800071
:1026F0003AC084B58F7702C084B58F7D84BD33C066
:102700008091B0008F7703C08091B0008F7D80935F
:10271000B00029C0809190008F7707C08091900011
:102720008F7D03C080919000877F809390001BC0B5
:102730008091A0008F7707C08091A0008F7D03C09B
:102740008091A000877F8093A0000DC08091200120
:102750008F7707C0809120018F7D03C08091200179
:10276000877F80932001E92FF0E0EE0FFF1FE257F3
:10277000FD4FA591B4919FB7F894311104C08C918D
:102780002095282302C0EC912E2B2C939FBF0895F7
:102790008230910538F0880F991F880F991F05978F
:1027A0000197F1F708953FB7F894809162059091F1
:1027B0006305A0916405B091650526B5A89B05C089
:1027C0002F3F19F00196A11DB11D3FBFBA2FA92FB0
:1027D000982F8827820F911DA11DB11DBC01CD012D
:1027E00042E0660F771F881F991F4A95D1F7089519
:1027F0008F929F92AF92BF92CF92DF92EF92FF9211
:102800006B017C01D0DF4B015C01C114D104E104F8
:10281000F104E9F0C8DFDC01CB0188199909AA09A4
:10282000BB09883E9340A105B10578F321E0C21AA7
:10283000D108E108F10888EE880E83E0981EA11CFB
:10284000B11CC114D104E104F10421F7DECFFF90E3
:10285000EF90DF90CF90BF90AF909F908F900895B2
:1028600083E096E0FAC9CF93DF93CDB7DEB76097E8
:102870000FB6F894DEBF0FBECDBF789484B58260EA
:1028800084BD84B5816084BD85B5826085BD85B514
:10289000816085BD80916E00816080936E00109292
:1028A000810080918100826080938100809181000D
:1028B000816080938100809180008160809380009E
:1028C0008091B10084608093B1008091B0008160FC
:1028D0008093B000809191008260809391008091FC
:1028E000910081608093910080919000816080933D
:1028F00090008091A10082608093A1008091A1004E
:1029000081608093A1008091A00081608093A000ED
:102910008091210182608093210180912101816059
:10292000809321018091200181608093200180911A
:102930007A00846080937A0080917A00826080932C
:102940007A0080917A00816080937A0080917A0089
:10295000806880937A001092C100E0917605F09132
:10296000770582E08083E0917205F0917305108213
:10297000E0917405F09175058FEC808310927E05CF
:10298000E0917A05F0917B0586E08083E0917805FF
:10299000F0917905808180618083E0917805F091E4
:1029A0007905808188608083E0917805F0917905D0
:1029B000808180688083E0917805F091790580813D
:1029C0008F7D80832FB7F894809158059091590599
:1029D000A0915A05B0915B052FBF80935D05909340
:1029E0005E05A0935F05B093600588EB94E04EDC34
:1029F0008091250690912606892B09F0BEC181EAB7
:102A0000898790EF9A879B8788EE8C878D871E86B3
:102A10001F86188A22EA29839A839B838C838D835D
:102A20001E821F8218868EE094E030DC8CE090E0FD
:102A300034DC85E595E02ADC80E294E027DC86E062
:102A400090E02BDC85E595E021DC86E394E01EDC5C
:102A500084E090E022DC85E595E018DC83E594E0F5
:102A600015DC8AE090E019DC85E595E00FDC89E66D
:102A700094E00CDC88E090E010DC85E595E006DC75
:102A80008091200624E0829FC00111242091AC0691
:102A90003091AD06280F391F4091AE065091AF0618
:102AA000425351094217530768F03093AD06209303
:102AB000AC060E94B51DFC0190939C0680939B067A
:102AC000892B21F489E794E0E1DB18C087E597E0E2
:102AD000958384831782168286ED96E0918780879E
:102AE000138612868CEF96E0958784871786168664
:102AF0008EEC91E0918B808B138A128A809107066D
:102B0000909108062091090630910A0682179307D2
:102B100009F04CDC8091090690910A062091070685
:102B2000309108062817390709F040DC1FB7F894E0
:102B300080915C05811120C0EDEDF2E08491E3E22B
:102B4000F3E09491E82FF0E0EE0FFF1FE65AFD4FFF
:102B5000A591B491EC91E92319F461E085E39ADD44
:102B600085E324DC8CB580618CBD8CB580648CBD24
:102B700084E31CDC83E31ADC80915C058F5F809327
:102B80005C051FBF60E087E096E00E94000D61E0F9
:102B900087E096E00E940B0D65E070E080E090E039
:102BA00027DE4CE060E087E096E00E943E0D4FE5B6
:102BB00064E087E096E00E943E0D66E087E096E0E4
:102BC0000E947C0D877D182F10628BE990E0A0E0B9
:102BD000B0E08093170690931806A0931906B0935F
:102BE0001A06412F66E087E096E00E943E0D66E0FF
:102BF00087E096E00E947C0D181709F425C166E075
:102C000087E096E00E947C0D66E087E096E00E94F7
:102C10007C0D45E550E060E070E04093170650936E
:102C200018066093190670931A06482F477D66E0D0
:102C300087E096E00E943E0D66E087E096E00E9405
:102C40007C0D87E096E00E94230D80E50E94250D13
:102C500083E70E94250D87E096E00E94210D40E069
:102C60006DE187E096E00E943E0D40E06CE187E078
:102C700096E00E943E0D10920F0640E767E087E065
:102C800096E00E943E0D4CE465E087E096E00E94ED
:102C90003E0D62EE87E096E00E942C0D87E096E004
:102CA0000E943C0D87E096E00E948F0D60E087E077
:102CB00096E00E947C0D482F4E7F60E087E096E012
:102CC0000E943E0D64EF71E080E090E091DD66E0EF
:102CD00087E096E00E947C0D887F482F416066E087
:102CE00087E096E00E943E0D40E064E087E096E0D9
:102CF0000E943E0D6DE187E096E00E947C0D482F1A
:102D000044606DE187E096E00E943E0D6CE187E053
:102D100096E00E947C0D482F4F636CE187E096E0BF
:102D20000E943E0D81E080930F0660E087E096E010
:102D30000E94000D60E087E096E00E947C0D482F25
:102D40004D7F60E087E096E00E943E0D87E096E0D0
:102D50000E948F0DAE014F5F5F4FBE01675F7F4FD7
:102D600083E096E00E948102882351F081E090E0A8
:102D7000909326068093250603C080EB94E086DAC4
:102D800011E06AE070E080E090E032DD2FB7F89467
:102D9000C0905805D0905905E0905A05F0905B0519
:102DA0002FBF40915D0550915E0560915F05709168
:102DB000600546015701841A950AA60AB70AC5019B
:102DC000B401C0925D05D0925E05E0925F05F0927D
:102DD00060057FD46B017C016093F0067093F1066F
:102DE0008093F2069093F3066091D1067091D2061B
:102DF00080E090E06ED4A701960181D54CD6709307
:102E0000D2066093D1062091CF063091D00662178A
:102E1000730798F01092D0061092CF061092D20647
:102E20001092D1061092EF061093C60640E050E0D3
:102E3000BA0182EB96E00E94EC0783E096E00E94E4
:102E40003F040E948A079DCF81E080930D06D7CE74
:102E5000CF93DF93E6E6F5E01382128288EE93E0EB
:102E6000A0E0B0E084839583A683B7838AE092E0F4
:102E70009183808385EC90E09587848784EC90E053
:102E80009787868780EC90E0918B808B81EC90E037
:102E9000938B828B82EC90E0958B848B86EC90E018
:102EA000978B868B118E128E138E148EC3E0D6E014
:102EB00084E492E0998388831B821A8287E090E001
:102EC0009D838C8388E090E09F838E831A8680E2C6
:102ED0008B871C8685E08A8B45E050E060E070E0DF
:102EE000488F598F6A8F7B8F1D868D8F8AE097ED73
:102EF00099A388A3109288061092870610928A06DA
:102F00001092890610928C0610928B0610928E06F3
:102F100010928D061092900610928F068CE392E02C
:102F200090939206809391061092980610929706BD
:102F300010929A0610929906109293061092940697
:102F400010929506109296061092A00610929F0677
:102F50001092A2061092A1061092A4061092A30647
:102F600010929E0610929D061092AB068EEB94E096
:102F70008DD98DEA92E09093AD068093AC0680E007
:102F800094E09093AF068093AE061BA21AA21E8E09
:102F90001F8E83E08C8F84E892E09983888384E39A
:102FA00092E09093D4068093D3061092D5061092A7
:102FB000D6061092D7061092D8061092D906109213
:102FC000DA061092DB061092DC069093DE06809300
:102FD000DD061092DF061092E0061092E1061092D4
:102FE000E2061092E3061092E4061092E5061092B3
:102FF000E6068CE190E09093E8068093E7068AE18C
:1030000090E09093EA068093E90686E190E0909341
:10301000EC068093EB0688E190E09093EE068093B7
:10302000ED061092C6061092EF0680E090E0A0E256
:10303000B1E48093CB069093CC06A093CD06B093D9
:10304000CE0680E090E0A0EAB1E48093C7069093BA
:10305000C806A093C906B093CA068CEE97E0909379
:10306000B3068093B2061092B5061092B40684E3BC
:1030700098E09093B7068093B6061092B906109226
:10308000B80689E998E09093BB068093BA0610923F
:10309000BD061092BC068EE698E09093BF06809322
:1030A000BE061092C1061092C00681E598E090938A
:1030B000C3068093C2061092C5061092C4061092F1
:1030C000F40680E290E051D5DC0113961C921E922A
:1030D000129715961C921E9214978CE192E011960D
:1030E0009C938E93E0EFF2E0E4911E96EC931E9792
:1030F000E1EFF2E0E4911F96EC931F972AEA32E0A9
:10310000F9018491E82FF0E0EE0FFF1FE257FD4F29
:103110008591949151969C938E935097EBEAF2E0AF
:10312000E491F0E0EE0FFF1FEC58FD4F8591949174
:1031300053969C938E935297F9012491E22FF0E0DD
:10314000EE0FFF1FE65AFD4F8591949155969C9383
:103150008E93549783EE97E357969C938E9356974E
:1031600082E090E017969C938E93169783E090E010
:1031700019969C938E931897B093B106A093B006BE
:1031800084E014D961E084E085DA20E030E543ECA6
:1031900057E460E082EB96E0DF91CF9126C9EF9291
:1031A0000F931F93CF93DF93E80147FD02C034E0F4
:1031B00001C034E1042E000C550B57FF03C051959C
:1031C00041955109E32E022F242FAE0120D0CE01CC
:1031D000DF91CF911F910F91EF900895BB27FB01D5
:1031E0005527AA27880F991FAA1FA41710F0A41B00
:1031F00083955051B9F7A05DAA3308F0A95DA1935A
:10320000009779F7B111B1931192CB014EC28F9211
:103210009F92AF92BF92CF92DF92EF92FF920F9365
:103220001F93CF93DF93CDB7DEB729970FB6F894EE
:10323000DEBF0FBECDBF6A01122FB02E2BE32017C9
:1032400020F0FF24F394F00E02C02CE3F22E0F2D99
:1032500027E0AE014F5F5F4F50D1BC014981842F01
:103260008970813031F0E1FC06C0E0FE06C090E2DA
:1032700005C09DE203C09BE201C090E05E2D50714D
:1032800043FF3CC0911102C083E001C084E081177C
:1032900018F4212F281B01C020E051110BC0F601AA
:1032A000822F30E2882319F031938150FBCFC20E78
:1032B000D11C20E0992329F0D6019C93F601319688
:1032C0006F01C6010396E2FE0AC03EE4D6013C93BC
:1032D00041E411964C93119712963C9306C03EE63A
:1032E000F601308341E641833283FC01322F40E214
:1032F000332309F442C041933150FACF42FF44C016
:10330000911102C083E001C084E0811718F4212FDD
:10331000281B01C020E051110BC0F601822F30E2C2
:10332000882319F031938150FBCFC20ED11C20E0CD
:10333000992329F0D6019C93F60131966F01C601BD
:103340000396E2FE0BC039E4D6013C933EE41196AD
:103350003C93119736E412963C9307C039E6F60188
:1033600030833EE6318336E63283FC01322F40E281
:10337000332319F041933150FBCFFC01E20FF11DD3
:1033800010828EEF9FEFA6C021E030E0911102C0C5
:1033900020E030E0161617061CF4FB01319602C03F
:1033A000E1E0F0E02E0F3F1FBB2021F0EB2DF0E01D
:1033B000319602C0E0E0F0E02E0F3F1FE12FF0E079
:1033C0002E173F071CF4121B212F01C020E08E2D69
:1033D000887159F4F601822F30E2882319F0319375
:1033E0008150FBCFC20ED11C20E0992329F0D601D9
:1033F0009C93F60131966F0151110BC0F601822F9B
:1034000090E3882319F091938150FBCFC20ED11C19
:1034100020E00F2D060F9A81342F307144FF03C036
:10342000913309F40150101624F4093018F008E023
:1034300001C001E0AB0177FF02C040E050E0FB01BA
:10344000E41BF50BA1E0B0E0AC0FBD1FEA0FFB1FC2
:103450008EE2A82E4B01801A91080B2D10E01195D9
:10346000019511094F3FBFEF5B0721F4D601AC92E4
:1034700011966D01641775072CF08416950614F4E7
:10348000818101C080E3415051093196D6011196E6
:103490007D014017510724F0D6018C936701E2CFDC
:1034A0006417750739F4963320F4953319F4311104
:1034B00001C081E3F6018083F701822F90E2882327
:1034C00019F091938150FBCFF701E20FF11D1082AB
:1034D00080E090E029960FB6F894DEBF0FBECDBF16
:1034E000DF91CF911F910F91FF90EF90DF90CF90E0
:1034F000BF90AF909F908F900895283008F027E0FC
:103500003327DA01990F311D87FD9160009661051F
:10351000710539F432602E5F3D9330E32A95E1F76F
:1035200008959F3F30F080387105610509F03C5FD8
:103530003C5F3D93913008F08068911DDF93CF93FD
:103540001F930F93FF92EF92192F987F9695E92F73
:1035500096959695E90FFF27EE59FE4F9927332749
:10356000EE24FF24A701E70105900894079428F4AE
:10357000360FE71EF81E491F511D660F771F881F63
:10358000991F0694A1F70590079428F4E70EF81EFA
:10359000491F561FC11D770F881F991F661F06946C
:1035A000A1F70590079428F4F80E491F561FC71F6E
:1035B000D11D880F991F661F771F0694A1F70590EC
:1035C000079420F4490F561FC71FD81F990F661F75
:1035D000771F881F0694A9F784911095177041F002
:1035E000D695C79557954795F794E7941A95C1F7DF
:1035F000E8E0F1E068941590159135916591959109
:1036000005907FE27395E118F10A430B560BC90B45
:10361000D009C0F7E10CF11E431F561FC91FD01D72
:103620007EF4703311F48A95E6CFE894015030F0BF
:10363000080F0AF40027021708F4202F2395022F01
:103640007A3328F079E37D932A95E9F710C07D93CA
:103650002A9589F606949795679537951795179447
:10366000E118F10A430B560BC90BD00998F02395CA
:103670007E9173957A3308F070E37C932013B8F74A
:103680007E9170617D9330F0839571E37D9370E35B
:103690002A95E1F71124EF90FF900F911F91CF91A0
:1036A000DF91992787FD90950895DC01FC01672F34
:1036B00071917723E1F7329704C07C916D93708309
:1036C0006291AE17BF07C8F3089540D008F481E0B7
:1036D0000895E89409C097FB3EF490958095709505
:1036E00061957F4F8F4F9F4F9923A9F0F92F96E94E
:1036F000BB279395F695879577956795B795F111C3
:10370000F8CFFAF4BB0F11F460FF1BC06F5F7F4F5F
:103710008F4F9F4F16C0882311F096E911C0772371
:1037200021F09EE8872F762F05C0662371F096E87A
:10373000862F70E060E02AF09A95660F771F881F49
:10374000DAF7880F9695879597F90895990F0008ED
:10375000550FAA0BE0E8FEEF16161706E807F90763
:10376000C0F012161306E407F50798F0621B730BFE
:10377000840B950B39F40A2661F0232B242B252B7F
:1037800021F408950A2609F4A140A6958FEF811D22
:10379000811D08950BD078C069D028F06ED018F044
:1037A000952309F05AC05FC01124A2C07ED0A0F3B7
:1037B000959FD1F3950F50E0551F629FF001729FC6
:1037C000BB27F00DB11D639FAA27F00DB11DAA1FE5
:1037D000649F6627B00DA11D661F829F2227B00D32
:1037E000A11D621F739FB00DA11D621F839FA00DBD
:1037F000611D221F749F3327A00D611D231F849F0D
:10380000600D211D822F762F6A2F11249F57504063
:103810008AF0E1F088234AF0EE0FFF1FBB1F661FFE
:10382000771F881F91505040A9F79E3F510570F0B7
:1038300014C05EC05F3FECF3983EDCF3869577954D
:103840006795B795F795E7959F5FC1F7FE2B880FB2
:10385000911D9695879597F9089597F99F6780E848
:1038600070E060E008959FEF80EC089500240A94D2
:103870001616170618060906089500240A9412164B
:103880001306140605060895092E0394000C11F47E
:10389000882352F0BB0F40F4BF2B11F460FF04C02B
:1038A0006F5F7F4F8F4F9F4F089557FD9058440F84
:1038B000551F59F05F3F71F04795880F97FB991F8F
:1038C00061F09F3F79F0879508951216130614064C
:1038D000551FF2CF4695F1DF08C0161617061806D9
:1038E000991FF1CF86957105610508940895E894B4
:1038F000BB2766277727CB0197F908955058BB2738
:10390000AA270ED0C1CFB2DF30F0B7DF20F031F4FC
:103910009F3F11F41EF4A7CF0EF4E095E7FB9DCF77
:10392000E92FC3DF80F3BA1762077307840795078F
:1039300018F071F49EF5DBCF0EF4E0950B2EBA2F44
:10394000A02D0B01B90190010C01CA01A0011124A5
:10395000FF27591B99F0593F50F4503E68F11A1651
:10396000F040A22F232F342F4427585FF3CF4695E2
:1039700037952795A795F0405395C9F77EF41F1604
:10398000BA0B620B730B840BBAF09150A1F0FF0FCE
:10399000BB1F661F771F881FC2F70EC0BA0F621FBA
:1039A000731F841F48F4879577956795B795F795AA
:1039B0009E3F08F0B3CF9395880F08F09927EE0F3C
:1039C0009795879508950CD05FCF57DF40F04EDF75
:1039D00030F021F45F3F19F040CF511189CF43CF30
:1039E00064DF98F39923C9F35523B1F3951B550B65
:1039F000BB27AA2762177307840738F09F5F5F4FC2
:103A0000220F331F441FAA1FA9F333D00E2E3AF002
:103A1000E0E830D091505040E695001CCAF729D01C
:103A2000FE2F27D0660F771F881FBB1F261737076B
:103A30004807AB07B0E809F0BB0B802DBF01FF279B
:103A400093585F4F2AF09E3F510568F006CF50CF44
:103A50005F3FECF3983EDCF3869577956795B795D5
:103A6000F7959F5FC9F7880F911D9695879597F9F0
:103A70000895E1E0660F771F881FBB1F6217730769
:103A80008407BA0720F0621B730B840BBA0BEE1F7E
:103A900088F7E095089511DF88F09F5790F0B92FCF
:103AA0009927B751A0F0D1F0660F771F881F991F93
:103AB0001AF0BA95C9F712C0B13081F018DFB1E041
:103AC000089515CF672F782F8827B85F39F0B93F51
:103AD000CCF3869577956795B395D9F73EF4909595
:103AE0008095709561957F4F8F4F9F4F0895AA1BCA
:103AF000BB1B51E107C0AA1FBB1FA617B70710F0D9
:103B0000A61BB70B881F991F5A95A9F7809590950A
:103B1000BC01CD010895A1E21A2EAA1BBB1BFD0119
:103B20000DC0AA1FBB1FEE1FFF1FA217B307E4079C
:103B3000F50720F0A21BB30BE40BF50B661F771FF4
:103B4000881F991F1A9469F76095709580959095D4
:103B50009B01AC01BD01CF010895EE0FFF1F881F2F
:103B60008BBF0790F691E02D19940F931F93CF937D
:103B7000DF938230910510F482E090E0E091F70647
:103B8000F091F80620E030E0A0E0B0E0309719F1C5
:103B9000408151810281138148175907C8F0841769
:103BA000950769F4109731F012960C9312971396BB
:103BB0001C9327C00093F7061093F80622C0211526
:103BC000310519F04217530718F49A01BD01EF01AE
:103BD000DF01F801DBCF21153105F9F0281B390B86
:103BE0002430310580F48A819B816115710521F0B3
:103BF000FB019383828304C09093F8068093F706B9
:103C0000FE01329644C0FE01E20FF31F81939193AF
:103C100022503109398328833AC02091F50630912A
:103C2000F606232B41F420910202309103023093D7
:103C3000F6062093F506209100023091010221152D
:103C4000310541F42DB73EB7409104025091050271
:103C5000241B350BE091F506F091F606E217F30709
:103C6000A0F42E1B3F0B2817390778F0AC014E5FEC
:103C70005F4F2417350748F04E0F5F1F5093F6062D
:103C80004093F5068193919302C0E0E0F0E0CF010C
:103C9000DF91CF911F910F910895CF93DF930097FC
:103CA00009F481C0FC01329713821282A091F706B9
:103CB000B091F806109781F420813181820F931F13
:103CC0002091F5063091F6062817390751F5F09343
:103CD000F606E093F50667C0ED0120E030E0CE1770
:103CE000DF0740F44A815B819E0141155105F1F0E7
:103CF000EA01F5CFD383C28340815181840F951FA0
:103D0000C817D90759F488819981840F951F0296A5
:103D1000918380838A819B819383828321153105DE
:103D200029F4F093F806E093F7063DC0E901FB8320
:103D3000EA8349915991C40FD51FEC17FD0761F42F
:103D400080819181840F951F0296E9019983888370
:103D5000828193819B838A83E0E0F0E012968D91CB
:103D60009C911397009719F0FD01DC01F7CF8D911D
:103D70009C9111979D012E5F3F4F820F931F2091C1
:103D8000F5063091F6062817390769F4309729F4BB
:103D90001092F8061092F70602C013821282B093B6
:103DA000F606A093F506DF91CF9108956F927F926A
:103DB0008F929F92AF92BF92CF92DF92EF92FF923B
:103DC0000F931F93CF93DF93009781F4CB01DF9183
:103DD000CF911F910F91FF90EF90DF90CF90BF9008
:103DE000AF909F908F907F906F90BFCEFC01E60FB9
:103DF000F71F9C0122503109E217F30708F4A5C010
:103E0000EC01D9010D911C91119706171707A8F025
:103E10000530110508F497C0C80104978617970765
:103E200008F491C002501109061B170B019311935E
:103E30006D937C93CF0131DF86C05B01A01AB10A7C
:103E40004C01800E911EA091F706B091F806612CEE
:103E5000712CE12CF12C109709F446C08D919C91A6
:103E60001197A815B905B1F56C0142E0C40ED11C3B
:103E7000CA14DB0478F14C018A189B08640142E003
:103E8000C40ED11C1296BC9012971396AC91B5E05B
:103E9000CB16D10440F0B282A38391828082D901F3
:103EA0006D937C9309C00E5F1F4F800F911FF90126
:103EB00091838083EB2DFA2FE114F10431F0D701C7
:103EC0001396FC93EE9312973EC0F093F806E0939E
:103ED000F70639C06816790608F43C017D01129690
:103EE0000D90BC91A02DB7CF8091F5069091F6066C
:103EF00088169906E1F466167706C8F480910002E8
:103F000090910102009741F48DB79EB74091040251
:103F100050910502841B950BE817F907B0F4F09354
:103F2000F606E093F506F901718360830CC0CB01BE
:103F30001CDE7C01009749F0A801BE011BD0CE0118
:103F4000ACDEC70104C0CE0102C080E090E0DF918A
:103F5000CF911F910F91FF90EF90DF90CF90BF9086
:103F6000AF909F908F907F906F90089581E090E048
:103F7000F89410C0FB01DC0102C001900D92415089
:103F80005040D8F70895FB01DC0101900D9200200C
:103F9000E1F7089511E0CBE9D1E000E005C0802F02
:103FA000FE01DBDD2196011DCC39D10780E0080739
:063FB000B1F7F894FFCF09
:103FB6000000F906800000000000CE0E3D0E6B0EDC
:103FC6001A0F7E077A0E8E0E000000000D0E0708EF
:103FD600C207B60800000000000000009C0E9C0E00
:103FE600000000007D07EB03000000000E0E240E0B
:103FF6000000000000000000D801D601D50107022C
:10400600CD049C0E00000000ED031C048102D601C5
:10401600D5010702CD0421030000000000000000C6
:104026008102D601D5013502CD0421039C0E9C0EDA
:10403600000000002D0E340E8102D601D501350296
:10404600CD0421032F0A090829205361793A202833
:1040560000526F626F7661635343206F6E20526524
:1040660061642044617461206F6620747970653ADA
:1040760020280029200A00526F626F76616353433D
:10408600206F6E2052656164206120436F6D6D6103
:104096006E640A00436F6D6D616E642054797065BD
:1040A600202800526F626F76616320436F6D6D61E9
:1040B6006E64204D6F76656D656E740A00524632E9
:1040C60034436F6D6D756E696361746F72206973C9
:1040D600206C6976696E670A0052463234536572FF
:1040E6007665723A20556E6B6F6E776E20526571EB
:1040F600756573740A005265717565737420547919
:10410600706520280029200044617461205479706C
:1041160065202800446174612053697A652028006F
:104126004D6167696320280053656E64657220449B
:104136006576696365204944202800526563696590
:1041460076657220446576696365204944202800B7
:10415600290020436865636B73756D202800436FE3
:104166006D6D616E64204D6F76656D656E74206F42
:104176006620747970653A2800526F746174654CD4
:1041860065667400476F2043616C6962726174658D
:10419600004D61726B3A00434E543A00443A004D6A
:1041A6004D433A004D4D543A004F4B2043414C4944
:1041B600423A004241442043414C49423A00524669
:1041C60032345061636B65742053697A6520280028
:1041D6005246323444617461427566666572205394
:1041E600697A6520280052463234446174615370FE
:1041F6006563696669636174696F6E2053697A6580
:104206002028005246323443616C6C5061636B6502
:10421600742053697A652028005246323443616C13
:104226006C2053697A65202800496E6974205265AE
:1042360071756573742046637473204552524F52EC
:104246003A2043616E6E6F7420416C6C6F636174CB
:1042560065207265717565737420466374730A0010
:10426600416C726561647920496E69740A00436F16
:104276006E7374727563746F720A004D6F76656D36
:10428600656E7420436F6E74726F6C6C6572204D30
:104296006F76650A004552524F523A2052463234E2
:1042A600436F6D6D756E696361746F722043616EE5
:1042B6006E6F742053656E6420456D70747920446A
:1042C600617461200A004552524F523A20524632DA
:1042D60034436F6D6D756E696361746F72204361EF
:1042E6006E6E6F742053656E64204461746120465F
:1042F60061742028546F6F2046617420280029209D
:084306003E20280029290A00CD
:00000001FF
